:0200000400708A
:1000000081400141814101428142014381430144D8
:1000100081440145814501468146014781470148A8
:10002000814801498149014A814A014B814B014C78
:10003000814C014D814D014E814E014F814FF9623E
:1000400073A002308542FE0263C3020001A0970242
:1000500000009382E20373905230970191FF9381E5
:10006000617A170290FF1302D27D137202FC73258E
:1000700040F185456370B5001316150132921701E2
:1000800090FF1301217861116F00201F6D7106C26E
:100090000AC40EC612C816CA1ACC1ECE22D026D248
:1000A0002AD42ED632D836DA3ADC3EDEC2C0C6C2F8
:1000B000CAC4CEC6D2C8D6CADACCDECEE2D0E6D228
:1000C000EAD4EED6F2D8F6DAFADCFEDE7325203476
:1000D000F32510340A86EF00001A73101534896274
:1000E0009382028073A0023092402241B241424288
:1000F000D2426243F243025492542255B2554256C0
:10010000D2566257F257064896482649B649464A9B
:10011000D64A664BF64B065C965C265DB65D465E3F
:0C012000D65E665FF65F51617300203010
:100130007330453082800000733045348280000087
:1001400073750430828073100530828003210500AE
:100150002245731005306F00C0051971232025005A
:1001600006C006C273250030218919C11305000895
:100170002AC412C816CA1ACC1ECE22D026D22AD41D
:100180002ED632D836DA3ADC3EDEC2C0C6C2CAC487
:10019000CEC6D2C8D6CADACCDECEE2D0E6D2EAD417
:1001A000EED6F2D8F6DAFADCFEDE03A105006F0027
:1001B00040000245731015349240A1629382028080
:1001C000739002302245732005304242D24262438E
:1001D000F243025492542255B2554256D2566257B7
:1001E000F257064896482649B649464AD64A664BCB
:1001F000F64B065C965C265DB65D465ED65E665F37
:10020000F65F096173002030411106C622C4000860
:1002100037057400832505FF130505FF504114457C
:10022000484537077400832787FE130787FE584326
:100230002244B24041018280411106C622C4000816
:1002400073E0107C37457A008325058E39661306E6
:1002500006C04CCE8325458E0CD28325858E232661
:10026000B6080325C58E2328A60873F0107C224407
:10027000B2404101828001458280411106C673E08F
:10028000107C3965130505C0930580062CC173F0F9
:10029000107C73E0107C2C5193E515002CD19385D4
:1002A000C1021385019073F0107C637BB5001306C7
:1002B00015006363B600B2853386A5408145652885
:1002C0001385018DC1659385050063FEA500375632
:1002D0007000130606CA830606002380D500850534
:1002E0000506E3EAA5FE516513050500D165938572
:1002F000050063FEA50037567000130606D7830677
:1003000006002380D50085050506E3EAA5FE130552
:1003100000009305000063FEA50037567000130629
:1003200006D7830606002380D50085050506E3EA87
:10033000A5FE05651305058085659385058063FE2B
:10034000A50037567000130606D7830606002380E3
:10035000D50085050506E3EAA5FE7D3573E0107C32
:100360003965930580022320B5C473F0107CB24038
:1003700041016F30400A19C6AA862380B6007D1657
:10038000850665FE828009651305058023A0A1A06E
:100390007D5650C123260500144593E6060114C579
:1003A000144593E6060214C5138501A02322050017
:1003B00009651305058123A8A1A089669386068295
:1003C00023A0D1A250C1D0C22326050023A6060037
:1003D00010451366060110C590461366060190C6C7
:1003E00010451366060210C588461365050288C6C7
:1003F000138501A123220500138501A223220500F4
:100400008280EF3240052A840CC550C52E85B28506
:10041000EF306007EF3020120C40C8C1084023269F
:10042000050008400C4593E505010CC508400C4546
:1004300093E505020CC508400C451166D18D0CC52D
:10044000232204006F30A00301A001A001A001A09D
:1004500001A001A001A001A001A001A001A001A094
:1004600001A001A001A001A001A001A001A001A084
:1004700001A001A001A001A001A001A001A001A074
:1004800001A001A001A001A001A001A001A001A064
:1004900001A001A001A001A001A001A0737004307F
:1004A0000965130505902324050023280500232C46
:1004B0000500232005022324050223280502232CFE
:1004C0000502232005042324050423280504232CE6
:1004D00005042320050623260500232A0500232ED4
:1004E00005002322050223260502232A0502232EC6
:1004F00005022322050423260504232A0504232EAE
:100500000504232205068280014573E0107CB7357F
:1005100070001387855E8965938605A0C165FD150A
:100520001306F0051C4311079CC29106B377B50072
:100530000505E3E9C7FE73F0107C73600430828028
:10054000411106C673E0107C3965930580062320AF
:10055000B5C473F0107CCD31392029458D458128F3
:10056000B240410119A273E0107C3965130505C042
:100570004C5171767D16F18D4CD14C510966D18D5F
:100580004CD14C51F5994CD14C5193E515004CD1BF
:100590004C5193E545004CD14C5193E505404CD16D
:1005A0004C5193E505104CD173F0107C8280EF2202
:1005B000906A3966130606C0544293F6061889CA33
:1005C00073E0107C544293F6F6E754C273F0107C4B
:1005D00010567D8A6308A60273E0107C3966130604
:1005E00006C014567D89819A558D08D673F0107C0B
:1005F00073E0107C1305800628C273F0107C48421B
:10060000058975DD1385F5FF09466373C50273E03F
:10061000107C3965130505C050419E0593F50518FA
:100620001376F6E7D18D4CC173F0107C6F203065E6
:100630000D45639AA50273E0107C3965130405C06B
:1006400048401375F5E71365051048C005651305A7
:100650001576970091FFE78060A54840136505185F
:1006600048C073F0107C6F20906173E0107CB96516
:10067000138505C0094610CD03A605C0719A1366FF
:10068000260023A0C5C00C4593E585000CC50C458C
:1006900093E525000CC54C4993E515004CC94C4920
:1006A00093E525004CC94C4993E545004CC94C499C
:1006B00093E505104CC94C4993E505204CC94C49BC
:1006C00093E505404CC94C4593E505104CC54C4598
:1006D00093E515004CC54C4593E525004CC54C45AC
:1006E00093E545004CC54C4593E585004CC54C450C
:1006F00093E505014CC54C4593E505024CC54C45B9
:1007000093E505044CC54C490966D18D4CC90C458F
:1007100093E515000CC50C4593E505010CC50C458A
:1007200093E505400CC50C4593E505100CC50C453B
:1007300093E505200CC50C451166D18D0CC50C49FF
:1007400093E505100CC90C4993E505200CC94C45EF
:10075000D18D4CC50C4593E545000CC573F0107C5C
:10076000828003A541908280411106C622C403A560
:10077000019011C10295E93203A641902A84130524
:10078000160023A2A190EF10904C2C45FD152CC50E
:1007900081C522854D3A29A86C41030645032CC525
:1007A00093658600230AB5022285713AEF10701412
:1007B0002244B24041016F204066014582800145DC
:1007C000828001458280EF22104937557000130462
:1007D000C5C837557000930485C863F78400884006
:1007E00002959104E3ED84FE6F205049EF22B0465C
:1007F000813AEF20B037EF00D019EF20407EEF10A4
:1008000050039120EF20607E2126EF10B0040145B7
:100810006F201047411106C622C426C2375570000A
:10082000130405C9375570009304C5C863F78400E5
:10083000884002959104E3ED84FE92442244B24044
:1008400041016F20103E411106C622C437357000A9
:100850001305857AB7157000938545810566930663
:1008600006802947D1470146EF10105A2A8409ED26
:10087000373570001305D57AB73570009385C57B81
:100880001306400DEF00D07422852244B24041018E
:100890006F10503CEF22903A7D540DC53289AE89DD
:1008A000AA84A5454E85EF10807009EDA5452685E3
:1008B0004E86EF1080420144239C2401238E0400C5
:1008C000239D040022856F20103BA5456F10206EEC
:1008D000EF2270382E892A8409ED37357000130510
:1008E000057DB74570009385258E1306000DEF003A
:1008F000306E2285EF10E068A545630EB5003735F0
:1009000070001305457FB74570009385258E13064B
:10091000100DEF00F06B035584019375050195E50B
:100920000C5485C12285829519C9AA843745700067
:100930001305C58AA2852686EF00606EADA8035513
:10094000840113650501231CA400218911C50345F9
:10095000A4012189E55425E1505411CA2285CA8594
:100960000296AA8409CD6955638BA400A9A081448D
:1009700005651305F5F03375A900231DA4000315C3
:10098000A4018345C40113658500231DA4001385BC
:1009900015009375F50F230EA400638EA50037454F
:1009A00070001305158FB74570009385258E1306CB
:1009B000F00FEF00F06126856F20302CEF22B02978
:1009C0002A8409ED373570001305057DB7457000A1
:1009D0009385559013062011EF00905F2285EF104C
:1009E000405AA545630EB500373570001305457FA5
:1009F000B74570009385559013063011EF00505D98
:100A00008345C40191C90145FD1513F6F50F230E69
:100A1000B40011C66F20B0267D556F2050260C58AB
:100A200081C92285829511C5E9556304B500DDB7FA
:100A30000145231D04006F209024011106CE22CC15
:100A400026CA4AC84EC63689B2892E84AA8409EDC0
:100A5000373570001305057DB745700093854592C5
:100A60001306B016EF00D0562685EF108051A5452D
:100A7000630EB500373570001305457FB74570002C
:100A8000938545921306C016EF00905403C5C40128
:100A900011CD9C5C91CF2685A2854E86CA86B2492F
:100AA0004249D2446244F240056182877D5511A0DB
:100AB0006955E1230145B2494249D2446244F240BA
:100AC0000561828003A6018A930645011387018A86
:100AD00054C250C923A0D18A18CD8280EF22B0170A
:100AE00083A4018A1385018A6380A4021384C4FE4F
:100AF000EFF00FE5CC4090404CC2CC4090C1C4C058
:100B000084C0EFF04FE411A0014422856F2010173C
:100B1000EF2270144111374570009305A59720000E
:100B200022850146EF00303F938401A43715700001
:100B3000130685B5138701AC930700107D48930811
:100B400000022685A2858146EF10C07D2685EF1024
:100B5000701041016F209012EF22500E81441389D2
:100B600001A39149054A139524004A95084111C1F2
:100B700002958504E39934FF953781446DD52A8425
:100B8000832A84072285EF10203DAA84631545013E
:100B90002285EF10002263840A002285829A99E45C
:100BA0000854EF0070462285EF108033053F2A84F9
:100BB00061F981444DBFEF22100AAE842A8409ED09
:100BC00037457000130525B7B7457000938535B8D4
:100BD0001306B02EEF00D03F8D4522852686EF10FC
:100BE000C00F1305440108CC48C83705FF000505B0
:100BF00048CC232004020545A304A40001456F202E
:100C0000F007EF22B00341112E89AA8A2EC6EFF019
:100C10002FD3AA89EF10A07005C5374570001305C2
:100C200035AFB7457000138425C7A285CD2E374553
:100C300070001305850013069039A285EF00503926
:100C4000EFF00FD02A8AEF10900005E537457000CD
:100C50001305D5B1B7457000138425C7A285C126F9
:100C6000374570001305850013069039A285EF0003
:100C70003036EFF0EFCCAA84412E05C53745700021
:100C8000130575A7B7457000138425C7A285412EAB
:100C9000374570001305850013069039A285EF00D3
:100CA00030332685EFF02FCA5285EFF0CFC94E853D
:100CB000EFF06FC9639E0A0037457000130525B732
:100CC000B7457000938525C71306C039EF00503033
:100CD0005685EF10002B8D45630EB500374570002B
:100CE000130515BAB7457000938525C71306D0398B
:100CF000EF00102EEF10A075AA84EFF06FC483A54B
:100D00004193AA8999C15685829523A8040203A517
:100D10000A026302950483D5CA01A9C91385F5FFA8
:100D2000239EAA0023A09A028385540303C5FA01D7
:100D30001306F00F238FBA006305C5020505A38FC4
:100D4000AA004E85EFF02FC083A5819399C15685E7
:100D500082950144D9A803C5FA019305F00FE31F5A
:100D6000B5FC4E85EFF02FBE7554C1A0630F09048A
:100D700083C5540303465503138A540363F6C50021
:100D800089455286EF10503503CB9A0013844A01EF
:100D90002685EF10702963000B0405456317AB042B
:100DA000228508416309850283450A00034615022E
:100DB000E3F9C5FE31150C4D130645019386440138
:100DC00094C18CCC14CDD0C82DA8795480D84E8530
:100DD000EFF06FB799A803A58A01938544010CC170
:100DE00088CC23ACBA00C0C829A8374570001305C9
:100DF0008500B7457000938505031306400AEF0090
:100E0000301D0545634CA9001384C404700022857D
:100E10008145EF1070722285EF10D0584E85EFF0AB
:100E20008FB2EF10002D805809C4228541016F2038
:100E30002064EFF0EFB0AA8929B7EF222060AA89D9
:100E400009ED37457000130525B7B7457000938548
:100E500005C813069044EF00B0174E85EF106012DE
:100E60008D45630EB50037457000130515BAB745BB
:100E70007000938505C81306A044EF007015EFF0CD
:100E80002FAC2A89EF10A05C05E5374570001305EB
:100E9000D5B1B7457000938405C8A685492237456A
:100EA0007000130585001306F044A685EF0050126C
:100EB000EFF00FA9AA84892A05C5374570001305EC
:100EC00075A7B7457000138405C8A285892A3745E0
:100ED0007000130585001306F044A285EF00500F43
:100EE0002685EFF04FA64A85EFF0EFA5EF102056CC
:100EF000AA84EFF0EFA483A5C1932A8999C14E85F6
:100F0000829503A509026388A4007D5480D84A8590
:100F1000EFF06FA329A80385F9017D159375F50FEF
:100F2000A38FA90081C94A85EFF0EFA10144228572
:100F30006F20605403C5E90183C554036308B500FD
:100F40001386E90189452685EF10101983A549010B
:100F500013854901638BA5021385C5FE23A0A90251
:100F60000386150283C5F9019306F00F238FC9008C
:100F7000638DD5028505A38FB900EF1020564A85F1
:100F8000EFF06F9CEF10E01655B703D5C901C165AE
:100F9000FD15630CB5000505239EA90023A00902D9
:100FA0001305F00F238FA900BDBF4A85EFF0AF995D
:100FB0007554B5BF411106C622C4EFF06F98038681
:100FC000019105062388C19083A581902A8491C14F
:100FD000829522852244B24041016FF0CF964111A3
:100FE00006C622C4EFF0CF9583A5C1902A8491C193
:100FF000829583850191FD152388B1902285224435
:10100000B24041016FF02F94EF22E044EFF04F9394
:1010100003C40191EFF02F9322856F204046797130
:1010200006C622C426C22A8446D642D43ED23AD02C
:1010300036CE32CC2ECA540836C0138501BC930577
:10104000F0079304F0072286412A2A8463649500FE
:101050001304F00703A5819101C9138601BC8145E2
:10106000A286EFF09F9D21A0138501BC1127228548
:1010700092442244B24045618280EF22C03D2A84DE
:10108000613709C523AA81906F20603FEF10203C93
:1010900075D900D96F20A03EEF22E03B4111914667
:1010A0002A846375D600228511E639A013753400B1
:1010B00001C92285EFF02FAC228541016F20203C31
:1010C00013F5F50FB706010193861610B306D50286
:1010D00036C693168500558D931605014147C98E76
:1010E0006360E6023D47228514C154C114C554C54E
:1010F00041164105E36AC7FE1147E367E6FA11A00E
:101100002285130745007116914714C1636CF600E0
:10111000B2468D4713054700711614C32A87E3EBC7
:10112000C7FE59B73A8549B7EF22E0322A89EF1056
:1011300000321DC9138501C4FD55EFF09FAC83A596
:1011400041922A842E85CA85EF003001AA841DC0F1
:10115000374570001305D521B74570009385D5221A
:101160001306A057B52539A003A54192CA85EF0003
:10117000C07EAA84EF10A02D01C5138501C4753966
:1011800003A6C19101C62685CA85029626856F20D1
:10119000C02E411106C6374570001305250B413599
:1011A000374570001305B50B9D3D3745700013059D
:1011B000F50DB745700013870510B745700093878C
:1011C000C510954501468146993D37457000130588
:1011D0005511B2404101A1B5EF22E0240111328442
:1011E0007D5A63C40500330AB5002EC6FD812EC8A2
:1011F000930B5002930DA002130C0002930C3002CB
:10120000254D29499303C006130E8006894EC165FA
:10121000FD152ECAB74570009385F5132ECC130B20
:1012200000039309D002930AB0022ACE834504003A
:10123000638B7501638D0530637445012300B50030
:1012400093051500C1A401430504030704001376A8
:10125000F70F63DBCD0063006603C147630036030D
:1012600063115603914719A863098601631B960110
:101270009307000221A0854711A0A1473363F30023
:10128000E1B7130707FD6364ED0201473307270346
:10129000830714000504620661863A96130706FD6B
:1012A000938407FD13F6F70FE3E224FF05A07D57B3
:1012B000631CB601984205049106FD5563C6E5001E
:1012C0003307E0401363030103460400FD57930511
:1012D000E002631AB604830714001306140013888F
:1012E00007FD93F4F70F63640D038147B38727036A
:1012F000030416000506E204E184A697938707FD20
:10130000930504FD9374F40FE3E225FF39A0639A7B
:10131000B4019C429106130624003284FD5563C437
:10132000F5008147328403480400936548006396C2
:10133000750083421400050419A0C28201489395E8
:10134000820113D68541A9486359CE04930520072D
:1013500063CAC506930590066301B6069305F006B9
:10136000630BB60893050007631CB61493051700BA
:1013700093B51500B365B300A1487D566303C7005C
:10138000BA8890429384460013F8F50FC146D2857F
:101390004687E522AA85A6868DA29305100663D00E
:1013A000C50493052006630FB60493053006630950
:1013B000B606930540066315B61013632300630F4A
:1013C0007802A1A0930530076300B60A9305500781
:1013D0006304B60293058007630BB600D5A0630CC7
:1013E000760D93058005631DB60C13630304C14895
:1013F0006306780019A8A148631978009042138DFC
:101400004600E5A08948E30B78FE9042138D460024
:10141000631DC80D93752300E9E5D2456D8EF1A0DB
:101420009375030189ED6344D70F854563744501C6
:10143000230085017D170505E3CAE5FE01476375B5
:1014400045018C422300B500910693051500634BBE
:10145000D70B1305170063F44501238085017D1523
:101460008505E3CAAEFE79A88442624691C026860D
:10147000814411CBB305960083C5050089C5850459
:10148000E31A97FEBA843328F000B3A59700B3752A
:10149000B80091E1A68793750301BDED63DDE70612
:1014A00063744501230085017D170505E3CAE7FE46
:1014B0001387F7FF95A0E37545D92300750149B35C
:1014C00063764501230075018342040093051500EE
:1014D000638D020263F445012380550093052500C6
:1014E00015A09315060113D605411378F30FD28585
:1014F000C6866120AA85EA86254D9303C006130E91
:101500008006894E05042E8515B37D14E5BF7D1731
:10151000E36945F315BF7D17AA853E85854463CCF5
:10152000970063F645018304060023809500850536
:101530007D1505067DF59106E3D6E7FC7D1763F47E
:101540004501238085018505E3CAE7FE65BFC245E5
:1015500089E5F245324611E629A8F24513C6F5FFA2
:1015600009CAAA85636445019305FAFF2380050033
:10157000F2450D8D05616F10D06EEF12D06D011127
:101580009378080463870800B7487000138EC8205A
:1015900029A0B7487000138EB81F937808016384A0
:1015A00008001378E8FF9372180093080002638420
:1015B0000200930800039372280063970200814E93
:1015C000014385431DEE95A0FD5263D0C202937284
:1015D0004800639302029372880093B3120093DE73
:1015E00032001393220011EE89A081433306C040DC
:1015F000854E1303D00231A081431303B002854E00
:101600000DC681420A8FB28F3356D6023304D602FA
:1016100033848F40729403040400B3045F00850296
:1016200023808400E3F1DFFE31A0130600032300D2
:10163000C1008542968663C35700BE869374180125
:101640003306D7408DE8B324C00033FE9E00330636
:10165000C6418544634D960A3306C0413A96158EBD
:10166000130700026374B5002300E5007D1605052D
:10167000E34AC0FE7D56639803006374B5002300FF
:1016800065007D1605051377080109EF0547634CD2
:10169000E6066374B500230015017D160505E34ACF
:1016A000C0FE7D5663DCF20013070003FD16637471
:1016B000B5002300E5000505E3CAD2FE85C7930601
:1016C000F1FF05479387F2FF6378B500B3845600B6
:1016D0008384040023009500938417000505BE82CF
:1016E000E34297FE8546634DD600050613070002C8
:1016F0006374B5002300E5007D160505E3CAC6FE48
:1017000005616F10B0577D16E3C0F2FA45BF7D1634
:10171000E38503F68DBF011106C2AE8246CE42CCF0
:101720003ECA3AC836C632C4340036C0FD551686A5
:10173000EFF09FAA924005618280EF12D05103A47E
:101740008191EFF08F9863018502AA8419CD03A5DA
:10175000819119C1EFF08FA6930530042685EFF033
:101760002F9723AC919011A0014422856F10F05067
:101770008280411106C622C426C24AC02A890D05AC
:101780009374C5FF13F4C5FF63ED84003745700003
:1017900013056514B74570009385E5151306005DC4
:1017A0000528330694403745700093042517268595
:1017B000CA851122938501C4054623A2A1922E85D4
:1017C000A685024992442244B24041016FF0AFBE67
:1017D000EF1270484111A307010003A78192B2865E
:1017E0002E86AA8511C72E85B2853686029711A846
:1017F0003745700013057517EFF07F820345F10040
:1018000075DD41016F10D047411106C622C426C2C2
:1018100083A501922A8499C12285829531C4EF0063
:10182000104315C5138501C4FD55EFF08FBDAA8483
:101830002285C12C99CC374570001305D521B745B9
:1018400070009385D5221306A057593719A0228519
:101850004D2CEF00D03F09C9138501C492442244A6
:10186000B24041016FF06FDD92442244B240410129
:10187000828009CD9375F50F05468DE5C165938589
:1018800005F0E98D91C5A181254629A801458280F1
:10189000B705FF00E98D81C5C181454621A093555B
:1018A00085016546374570001305A5232E95034530
:1018B000050032958280EF1270382E969374C6FF21
:1018C000E54663EDD4002A89138535001374C5FFFE
:1018D00013058403938684FE63FAA60037457000DF
:1018E0001305A533EFF0AFF30144ADA01305B40326
:1018F0009379C5FF338A3441930A8AFE1306800325
:1019000022858145EFF04FF9B14522854A86F126BF
:10191000374570001305453748C8232C3401232E62
:101920005401232A54032324340323A089001305DC
:101930004AFF23A2A90023A40900938544FF4CD4A5
:101940009365140023AAB4FE23ACA4FE23AEA4FE28
:101950002328340322856F10D031EF12D02FCDC948
:10196000AE842A8901ED3745700013059554B745BB
:1019700070009385853E13060012993D4A85112516
:10198000B145630DB5003745700013059538B7456F
:1019900070009385853E130610121D3D4A856D2B00
:1019A00001ED374570001305253CB7457000938560
:1019B000853E13062012293D138534001377C5FF99
:1019C00031456363E50031478328490363E2E80456
:1019D0000328090383228902B30558403386E8406F
:1019E0006368B60293864200B384B20003C5040064
:1019F000058909E9DC401384C500338587406366A7
:101A0000E50019A83385B6001C41BE85E37EF6FCCF
:101A1000014422856F107026930687011306C700C4
:101A20006376D50A0325090283264902B385B740A8
:101A30002E952320A90263F4A6002322A902136590
:101A4000190088C06314980203450800058919CD60
:101A50008325C902630CB800032548003388A2001F
:101A6000232809030345080005896DF50325C902EC
:101A7000B3059600637DB500374570001305653FDB
:101A8000B74570009385853E1306901891331384F3
:101A9000C4001375340001CD37457000130545446B
:101AA000B74570009385853E1306A018153313F5CE
:101AB000340025D1374570001305D548B74570006F
:101AC0009385853E1306B0182133A1B7B306E40011
:101AD0003385D2001377E9FF18C15CC10CC5D4C0AF
:101AE00048419385C8006304B500169514C50325C5
:101AF00009028325490232952320A902E3EFA5F2CA
:101B00003DBF411106C622C426C24AC06300051269
:101B10002A840D8901CD374570001305C54CB745A2
:101B20007000938545531306C0205D31032544FFA3
:101B30009374E5FF130944FF91EC374570001305DA
:101B40001554B7457000938545531306202149313C
:101B500003250900058909ED374570001305655512
:101B6000B74570009385455313063021EFF05FC6EB
:101B700026850129B145630EB50037457000130570
:101B80006556B74570009385455313064021EFF025
:101B90003FC42685D12609ED374570001305E55A67
:101BA000B74570009385455313065021EFF05FC28F
:101BB00088546365A400CC54636FB400374570004B
:101BC0001305355EB74570009385455313067021A4
:101BD000EFF01FC08854832584FF2E950841799922
:101BE000630E95003745700013055565B7457000C5
:101BF0009385455313068021EFF09FBD2320990064
:101C000088586374A90023A82403032584FF8C54F7
:101C100090503305A9400D8D329588D02685CA8510
:101C2000024992442244B240410139A002499244FF
:101C30002244B24041018280EF12F001AA8408558B
:101C40002E8463FEA500374570001305C568B745AF
:101C500070009385D56A13062008EFF07FB7C8544B
:101C6000636EA400374570001305856BB74570009F
:101C70009385D56A13063008EFF09FB588544C4021
:101C80003306B5006306860283460600858A8DE228
:101C9000D454630FD6008C586393C50080D84C424F
:101CA000232006004CC05042B306A4402A9614C616
:101CB0001044B306C5006380860203C70600058B87
:101CC00019EB98586313870094D823200400CCC2E2
:101CD0004C402E9510C56F10607A011106CE22CCB3
:101CE00026CA4AC84EC652C456C25AC032892E8A23
:101CF0002A8B0145C165938505001306000AB306CA
:101D0000B5009442638346034105E31AC5FE374597
:101D100070001305656EB74570009385D56F130687
:101D20008015EFF0FFAA814431A0C16593850500BD
:101D3000B304B500412BC0409104630794023745BA
:101D400070009309C57037457000930AD56F13056D
:101D500044FF63186501130670164E85D685EFF0B3
:101D60003FA70040E31594FE9D2B13650A0823044A
:101D7000AB0021465A85CA85EF10500483A5C19255
:101D800099C15A858295EFE0AFBB8C401306CB001A
:101D9000D0C12326BB0090C023289B00024B924A4F
:101DA000224AB2494249D2446244F24005616FE09E
:101DB0008FB9411106C622C42A8409ED3745700047
:101DC0001305A571B74570009385C57213064019B8
:101DD000EFF01FA083A5019399C12285829523046A
:101DE0000400EFE0EFB50C4850444CC20C48930699
:101DF000C40090C114C854C42244B24041016FE0F1
:101E00008FB4EF12A0632E89AA84EFE06FB3AA8982
:101E1000EFF08F9F0DC537457000130575A7B745C7
:101E200070001384D573A285EFF06F9F3745700063
:101E3000130585001306801BA285EFF07F994E8560
:101E4000EFE06FB00145C165938505001306000AF8
:101E5000B306B5009442638396024105E31AC5FEBA
:101E6000374570001305656EB74570009385D573CF
:101E70001306C01BEFF0DF95814931A0C165938542
:101E80000500B309B50003A5C900EFF0EFA929C506
:101E90002A8403A6C9008145EFF00FA02304940013
:101EA000A304040021462285CA85EF10207183A572
:101EB000C19299C122858295EFE08FA883A5490040
:101EC000138649009306C400D4C14CC423A2D90090
:101ED00010C8EFE04FA711A0014422856F10A05950
:101EE000411106C622C42A8409ED37457000130546
:101EF000A571B7457000938505751306601FEFF057
:101F00003F8D03058400FD5563CEA5003745700065
:101F100013051576B7457000938505751306701F78
:101F2000EFF01F8B83A5019399C12285829523042D
:101F30000400EFE0EFA00C4850444CC20C4893065C
:101F4000C40090C114C854C4EFE0EF9F228522441E
:101F5000B24041016FF05F8BEF12E04F2A8409ED30
:101F6000374570001305A571B74570009385A578B6
:101F700013069021EFF0DF85034584001D816F106B
:101F80000050EF12404D2A8409ED374570001305CB
:101F9000A571B74570009385457A1306C022EFF00E
:101FA0003F83034584001375F5076F10404DEF1212
:101FB000E048AA8929454166130446000326C4FF68
:101FC0006306B6007D15410475F985A0638F090489
:101FD000EFE00F972A89EFF02F830DC5374570008A
:101FE000130575A7B74570009384757BA685EFF040
:101FF0000F8337457000130585001306A024A685BE
:10200000EFF00FFD4A85EFE00F946D2CA284844021
:10201000638C8400138944FF21464A85CE85EF10E6
:10202000205775F56D2C19A05D2C01494A856F105C
:102030008044014523960194938541C61306001000
:10204000B306B500D4C2210594C2E31BC5FE23A884
:1020500001948280411106C622C403A50195EFF0C8
:102060005F810E05938541C62E95032485FF1305D8
:10207000C4FE23A0A19419288D45130584002300D4
:10208000B4022244B24041016FE04F8C411106C6B8
:1020900022C42A8409ED374570001305657CB745D5
:1020A00070009385257F13061035EFF06FF2EFE097
:1020B0002F890C4C50484CC20C4C9306440190C1E3
:1020C00014CC8345540354C8138641C68E05B2957B
:1020D0009041631BB6000C5C83A6019593C5F5FF88
:1020E00013860195F58D0CC22244B24041016FE088
:1020F0008F85011106CE22CC26CA4AC84EC6EFE013
:102100002F8483D5C1942A8491C92285B24942493A
:10211000D2446244F24005616FE0EF8203A501956D
:102120006DD5EFF00FF57D1503A90194138641C617
:1021300093163500834549033696104293F6750091
:102140000D479304C6FE6399E6000346590363787E
:10215000A60881494A8669A881496382240B03A69F
:102160004194238AA19423A0919401C64A85A6850F
:102170000296638409004A8565282685013F83C548
:1021800044038854D05493F5850F93E53500238A92
:10219000B402B305A60003C6F5FF93063002631B25
:1021A000D600D04C3335C500B3B5C50093C5150076
:1021B0006D8D01ED375570001305C580A685EFE0E4
:1021C0001FE6EFD0FFF711C101A003C5019129C59A
:1021D0001305C9019385C401EF00906D3DB7298EA9
:1021E00093F68500D18E4A8691C22686B339D000F7
:1021F00093F5750F230AB902B284E39224F74A8556
:10220000713503A501948345450393F5850F93E547
:102210003500230AB502D5BD83A5819499C14A85AD
:1022200082951305C9019385C401EFD01FF3F1BD59
:10223000411106C622C42A8409ED374570001305F2
:10224000657CB74570009385857D1306702EEFF091
:102250002FD8EFD0FFEE83A601948345440313F6F5
:10226000850F638A860213661600230AC40203469A
:10227000540393F78500938641C613173600B305C0
:10228000D7001306440189EF9441D0C254C890C1CD
:102290001306840119A893653600230AB40231A8F5
:1022A000BA96D84210C318CCD0C20CC20C5C83A61C
:1022B000019513860195D58D0CC22244B24041018F
:1022C0006FD07FE8411106C6EFD09FE70396C19417
:1022D00005062396C194B24041016FD0DFE641115B
:1022E00006C6EFD0FFE50396C1947D16931606014E
:1022F000C1862396C1946356D000B24041016FD08D
:102300009FE423960194EFD01FE403A5019409C52F
:10231000B24041016FF0FFDDB2404101828003D540
:10232000C1948280EF12A0104689C2893E8ABA8485
:10233000B68A328BAE8B2A8415C195CC8545228511
:102340005E86EFF09F992285DA855686A6865287AB
:10235000CE874A88352801456F10401137457000F7
:102360001305657CB755700093856582130630139D
:10237000EFF00FC6E1F43755700013055583B755DC
:1023800070009385658213064013EFF06FC47DB72C
:10239000411106C622C426C24AC04289BE842A848C
:1023A000510508CC48C80CD050D014D458D493054B
:1023B000300236853A86EFE03FCE08504C5010543C
:1023C000B73670009386C699EF00D04A9305000295
:1023D00048CC63EEB400375570001305959EB75591
:1023E0007000938585821306D00BEFF06FBEA30AB1
:1023F0009402232C0402232E04022300040423222B
:1024000024052324240523280402230A0402232C60
:102410000406232E04061305C404B7357000138682
:10242000859DA285A28601478147EF00E06483A7CE
:10243000019681CB2285024992442244B240410157
:102440008287024992442244B2404101828003A51E
:1024500001948280EF1220002A8409ED3745700034
:102460001305657CB75570009385C5841306601607
:10247000EFF00FB6034544031D8909CD37557000B1
:102480001305E585B75570009385C584130670164E
:10249000EFF00FB42285EFF0DFAE8544630E9500B8
:1024A0003755700013055589B75570009385C5845D
:1024B00013068016EFF0CFB1034554033395A40003
:1024C00008DC0945230AA4022285092803A50194F2
:1024D00019C1EFF01FC201456F00507AEF02B077CB
:1024E0002A8409ED374570001305657CB7557000E7
:1024F0009385859D13062038EFF08FAD2285EFF090
:102500005FA88545630EB5003755700013055589E2
:10251000B75570009385859D13063038EFF04FABAB
:10252000034544039375750009467D55639EC502B6
:10253000EFD01FC10C4C50484CC20C4CAA84130560
:10254000440190C108CC48C81305C404EF0060766C
:102550002285EFF0FFCD2685EFD0FFBE83A5C19584
:1025600099C12285829501456F005071EF02B06ECE
:102570002A8409ED374570001305657CB755700056
:102580009385758D13061019EFF08FA42285EFF057
:102590005F9F8545630EB50037557000130555895B
:1025A000B75570009385758D13062019EFF04FA273
:1025B0002285EFF07F9A09ED375570001305858E5F
:1025C000B75570009385758D13063019EFF04FA045
:1025D000034544031D8919C591456304B50222854D
:1025E000EFF0DFAAEFD0DFB5AA841305C4040523FA
:1025F0001145230AA4022285EFE0CFCC2685EFD037
:102600009FB401456F009067EF0250633E89BA891D
:102610003684328AAE8AAA850545EFF08FFE1DC149
:10262000AA842285EFE05FB019C9AA862685D685DF
:1026300052862287CE874A88EFF09FD529A026852B
:10264000EFF01F8A814426856F00B062EF02B06010
:102650002A8409ED374570001305657CB755700075
:10266000938575911306801FEFF08F962285EFF00A
:102670005F918545630EB500375570001305558988
:10268000B7557000938575911306901FEFF04F9426
:102690002285EFF07F8C09CD3755700013058592A8
:1026A000B7557000938575911306A01FEFF04F92F8
:1026B000034544031D8919C591456304B50222856C
:1026C000EFF0DF9CEFD0DFA7AA841305C4048121BB
:1026D0001145230AA4022285EFE0CFBE2685EFD064
:1026E0009FA601456F009059EF02505541112AC62F
:1026F0006308051203AA0194631E0A00374570009F
:102700001305657CB75570009385359613066024D4
:10271000EFF00F8C5285EFF0DF868545630EB50034
:102720003755700013055589B75570009385359658
:1027300013067024EFF0CF89EFD09FA02A89EFF025
:102740001FBE0DC537457000130535AFB755700076
:1027500093843596A685EFE09F8C3745700013056E
:1027600085001306A024A685EFF08F86EFD05F9D2D
:1027700083A50194AA898DE5374570001305D5B16D
:10278000B755700093843596A685EFE05F8937458D
:102790007000130585001306A024A685EFF04F8373
:1027A000EFD01F9AAA84EFE03F860DC53745700031
:1027B000130575A7B755700013843596A285EFE011
:1027C0001F8637457000130585001306A024A285D7
:1027D000EFF00F802685EFD01F974E85EFD0BF9684
:1027E0004A85EFD05F96EFD0BF952A8423280A024E
:1027F00052851D289304CA047000268581452D2B1F
:1028000026854D262285EFD01F94EFF09F8E03255D
:102810000A03F9556317B500014523280A0211A0E0
:10282000595541016F001045EF02F0422A8409ED2D
:10283000374570001305657CB75570009385B59AD0
:1028400013066035EFE0DFF82285EFF08FF3854562
:10285000630EB5003755700013055589B7557000E4
:102860009385B59A13067035EFE09FF603A50194A2
:10287000630E8500375570001305D59BB755700062
:102880009385B59A13068035EFE09FF40345440322
:102890009375550005467D55639CC502EFD05F8A50
:1028A000AA842285EFF08FFE034544031375850F3C
:1028B00013652500230AA4021305C404DD2E268512
:1028C000EFD07F8883A5819599C1228582950145A6
:1028D0006F00D03A6FF05FE1EF0250363289AE847C
:1028E0002A8409ED374570001305657CB7557000E3
:1028F000938595991306F02DEFE09FED2285EFF07B
:102900004FE88545630EB5003755700013055589AE
:10291000B7557000938595991306002EEFE05FEB95
:1029200095CC85496380340509456396A406EFD0AC
:102930003F81834544039D898549AA84639D35036E
:102940002285EFF0AFF403450900A30AA4023395F2
:10295000A90008DC2285EFF0BF8D2DA02285EFF0C5
:102960007FAF15A82285EFF02FDF63113503228595
:10297000EFF0DFBF39A803450900A30AA40233958D
:10298000A90008DC2685EFD00FFC31A02285EFF0EE
:10299000FFCBEFF00FF601456F00F02D411106C699
:1029A00022C426C203A40194EFD08FF9AA84228501
:1029B000EFF0CFED1305C404992A1145230AA402B0
:1029C0002285EFE02F902685EFD0EFF79244224446
:1029D000B24041016FF0EFF1411106C622C426C298
:1029E0002A8409ED374570001305657CB7557000E2
:1029F0009385B5A013066008EFE09FDD034544030F
:102A00001D898945630EB500375570001305B5A1C2
:102A1000B75570009385B5A013067008EFE05FDB33
:102A20002285EFF00FD68545630EB500375570004F
:102A300013055589B75570009385B5A01306800816
:102A4000EFE01FD9EFD0CFEF0C4C5048F95614D817
:102A50004CC20C4CAA841305440190C108CC48C850
:102A60002285EFF0EFFC2685EFD0EFED9244224473
:102A7000B24041016FF0EFE7EF02501CBE893A8A85
:102A800036893284AE8AAA8429C92DC437050080CC
:102A90007D15636EAA0037557000130575A8B755EC
:102AA0007000938565A613062011EFE07FD2A9453B
:102AB00026855686EFF06FA213F5E90FA384A400D4
:102AC000C0CC23A0240323A4040223A2440313851F
:102AD000440188CCC8C86F00D01937557000130561
:102AE00055A5B7557000938565A613060011EFE054
:102AF0003FCE49FC37557000130545A7B755700008
:102B0000938565A613061011EFE09FCC41B7EF0245
:102B100090142A8409ED37557000130555A5B75553
:102B200070009385E5A913067012EFE07FCA228535
:102B3000EFF02FC5A945630EB5003755700013059A
:102B4000E5AAB75570009385E5A913068012EFE05A
:102B50003FC82285EFF04FC009ED375570001305CF
:102B6000A5AEB75570009385E5A913069012EFE066
:102B70003FC6EFD0EFDC0C4C50484CC20C4C90C11F
:102B8000834594001306440110CC50C893F5E50F1B
:102B9000A304B400EFD02FDB2285EFF08FA1014515
:102BA0006F00F00DEF02300B2A8409ED37557000ED
:102BB000130555A5B75570009385A5B61306201AC1
:102BC000EFE01FC12285EFF0CFBBA945630EB50032
:102BD000375570001305E5AAB75570009385A5B663
:102BE0001306301AEFE0DFBEEFD08FD50C4C504803
:102BF0004CC20C4C90C1834594009304440104CC16
:102C000044C893F5E50FA304B40083A581932A89F2
:102C100099C122858295EFD0DFB45050834594004E
:102C2000B306A60013F6450014D401C61385019718
:102C300019A0138581971307450018431338160010
:102C40006300E50293C6F6FFB7070080F91710414D
:102C5000504A36966366F6000841E31AE5FE3A8567
:102C600083A6C1961841850623A6D19644C358C8A9
:102C700004C108CC13E51500A304A40063150802E1
:102C800003C501980DE1138541D6834545039D8910
:102C90000946639AC500EFF07F844A85EFD0AFCA3A
:102CA000EFF02FC521A04A85EFD0EFC901456F0095
:102CB000C07CEF02407A2A8409ED37557000130575
:102CC00055A5B7557000938595B71306A021EFE081
:102CD0003FB02285EFF0EFAAA945630EB500375546
:102CE00070001305E5AAB7557000938595B71306D4
:102CF000B021EFE0FFAD03459400937515007D55BD
:102D000095C983A5C19399C122858295EFD04FC300
:102D10000C4C50484CC20C4C90C183459400130697
:102D2000440110CC50C893F5E50FA304B400EFD0D4
:102D30008FC101456F00A074EF0240703289AE84EC
:102D40002A8409ED37557000130555A5B755700055
:102D5000938575B81306E023EFE09FA72285EFF077
:102D60004FA2A945630EB500375570001305E5AABB
:102D7000B7557000938575B81306F023EFE05FA593
:102D8000EFD00FBC8945AA8963CE95009DC4054547
:102D90006383A4060945639CA40603459400137548
:102DA000D50FB9A00D456381A40411456387A40420
:102DB0001545639EA404085489A803250900B70596
:102DC0000080FD156360B50237557000130585B9A5
:102DD000B7557000938575B813069024EFE05F9F98
:102DE0000325090048D025A003059400136525009C
:102DF000A304A40029A8485009A803459400058904
:102E000001E52320090021A005452320A9004E85C6
:102E1000EFD06FB301456F000066EF0240614111D2
:102E2000930981004EC64EC4EFD0BF93AA8BEFD05A
:102E30002FB103A48197938A81972A89630F54093C
:102E400037050080130BE5FF0D4D48483385AB4037
:102E50006365AB0883A541969304C4FE99C126859A
:102E6000829548400C40C8C148400CC1034554FFFE
:102E700040C09375250000C089E51375E50FA30ACE
:102E8000A4FE224540C108C022C40C444844232269
:102E900034018295EFD0FF8C83A58196AA8B99C1CE
:102EA0002685829522456306350348400C40C8C1FB
:102EB00048400CC1034554FF40C09375350000C025
:102EC0006399A5011375E50FA30AA4FE2685EFF00B
:102ED0007FCD03A48197E31A54F74A85EFD0AFA6BC
:102EE000410151A3EF0220572E84AA84EFD04FA5B1
:102EF0008C4063869500CC4981440CC011A0FD54E0
:102F0000EFD06FA426859DABEF02E051411113096C
:102F100081004AC64AC4EFD0AFA203A40197138A26
:102F200001972A8C6308440B37050080930AE5FF5C
:102F3000854C8D4DEFD0FF824C480D8D63ECAA0877
:102F400083A541969304C4FE99C126858295484085
:102F50000C40C8C148400CC1034554FF40C09375A4
:102F6000250000C089E51375E50FA30AA4FE2245DC
:102F700040C108C022C42322240123809199628584
:102F8000EFD06F9C0C444844829583A5819699C1EB
:102F900026858295EFD0CF9AA2452A8C238001986E
:102FA0006386250348400C40C8C148400CC1034516
:102FB00054FF40C09375350000C06399B501137587
:102FC000E50FA30AA4FE2685EFF0DFBD03A4019759
:102FD000E31244F76285EFD00F97410159A1938521
:102FE0008197CCC123ACB1968280411106C622C420
:102FF00093850197CCC123A8B196138441D6375548
:1030000070009305E5BB373570001306E5021387A2
:1030100041DE930700201148A94822858146EFF040
:103020006FB022852244B24041016FF0AFC2EF027F
:103030008042411113840197640037050080130911
:10304000E5FF2285A685EFF0FFE901C9EFF02FC06B
:10305000EFF08FFDEFF0EF8919A8EFD08FF0B245B8
:103060003385A5406365A9002AC6EFF0BF86EFF05F
:10307000BFE9C1BF2A88130546009378C5FF1385B1
:1030800008F8930700F837C7ADDE1307F7EE33866D
:10309000F800910718C2E5FF23A2D8F823A4B8FAD4
:1030A00023A008F9A1659385058823A4B8F8828038
:1030B00083A6C19899E223A2A19823A4B1980545BB
:1030C00023A6A1988280EF026037B289AE842A8954
:1030D000138441FE654548C81305040251468145E5
:1030E000EFD06FA9373570001305651148D8373513
:1030F00070001305051608DC373570001305C51A76
:1031000048DC64C0232034050D462285CA85EFD0F3
:103110006FF801458DA6EF02003436893284AA8407
:1031200001ED37557000130515C4B7557000938530
:10313000C5C25946EFE0CFE9133514009305C9FF26
:10314000B335B0004D8D19C1014505AEE8401045BD
:1031500083550400268502962311A400114531AE43
:10316000EF02602F3689B2842A8409ED375570004A
:10317000130515C4B75570009385F5C11306600299
:10318000EFE00FE513B514009305C9FFB335B000A8
:103190004D8D19C10145D5A46840544183D5040023
:1031A00003D62400228582961145C1ACEF02A02AE5
:1031B000B2842A8401CD85C86840144183D50400B7
:1031C00003D624002285829601454DAC3755700008
:1031D000130515C4B7557000938505C51306700314
:1031E000EFE00FDFF1F87D5551AC37557000130556
:1031F000D5C5B7557000938545C601466FF0BFEC45
:1032000013F5051E11C1828085463395B60073E023
:10321000107C63DCC6008945630CB6028D456304EF
:10322000B6049145630FB60091A801CE854563179A
:10323000B604B96593850580D0511345F5FF718DAE
:1032400031A0B96593850580D051518DC8D13DA07D
:10325000B96593850580D0511345F5FF698ED0D1AE
:103260009059718D19A8B96593850580D051934601
:10327000F5FF758ED0D19059518D88D973F0107C9F
:10328000828013F5051E11C1828005453315B500F6
:10329000C14511C2B145396613068683B29588C10E
:1032A000828013F6051E014511C28280396503250F
:1032B00085833355B50005898280EF02C0192A84C1
:1032C000C124AA851306D5FF8D46595563EFC60262
:1032D00083460400130700056399E6028346240031
:1032E0001307E0026393E602114563C1A50201459D
:1032F00093053400A946038705003305D5023A95A6
:10330000130505FD7D1685057DF695AA014585AA5F
:10331000397106DE16DC1ADA1ED82AD62ED432D23D
:1033200036D03ACE3ECC42CA46C872C676C47AC2BD
:103330007EC00965B1652324B582EFD0BFC7EFD049
:10334000AFC2EFD0DFC9824F124FA24E324EC248F9
:103350005248E247724782561256A2553255C2531E
:103360005253E252F250216173002030411106C6DF
:1033700022C4EFD0EF9C73700430EFD02F924165E0
:103380001304F5FF2285EFC0BFDA2285EFC0DFDA34
:10339000EFD08F9773E0107C09652322859073F03E
:1033A000107C73E0107C373570001305053189659A
:1033B00023A0A5BA73F0107CEFC0FFFC138501A217
:1033C000B705484337067A44EFD0AF830965916566
:1033D0002324B58237151000832505C10966D18DD8
:1033E0002328B5C0832505C193E515002328B5C062
:1033F000736004305165E165EFE0AFB7EFF0FFDED9
:10340000EFD06FBC37557000130505C82244B24099
:1034100041016FE08FB2EF020004EFD02FBD0145F4
:1034200085A001458280397101436EC619A03971AA
:1034300041436AC866CA62CC5ECE21A039711303CB
:1034400000025AD056D252D44ED64AD826DA22DCBE
:1034500006DE1A91828241114AC026C222C406C6E3
:103460008282B24D4101024D924C224CB24B41013D
:10347000024B924A224AB2494101024992442244F3
:10348000B24041018280370700809302F00FB347BA
:10349000B500F98F13161500618293961500E1822D
:1034A00029CEBDC6630F560463895606369622059B
:1034B000598DA205D98DB306B5023335B502B336A1
:1034C000D000558D6344050006057D16130616F8D9
:1034D00063480604FD12635F56009316850121813F
:1034E0005E06329563D606000505860691E2799957
:1034F0005D8D82803705807FE5BF638D56003E85F8
:103500008280260501E9E39756FEA60581E5DDB731
:10351000E31756FE3705C07F8280A605E5FDD9BFBB
:10352000050671FE2185930215000905E39902FC49
:103530003705800075BF9357F54113161500935555
:103540008601938515F863CF0500B70600807D4797
:103550000D8F635BE0002205558D3355E5003D8DF1
:103560001D8D82800145828013C7F6FFB70500FFDD
:1035700063F3C500798D758D634305003A858280BC
:10358000930515000346050005056DFE0D8D82802F
:1035900005C67D160147B307E500B386E50083C77E
:1035A000070083C606006306C70081C70507E384DA
:1035B000D7FE3385D740828001458280AA8711CE0D
:1035C000850503C7F5FF85079306F6FFA38FE7FE82
:1035D00011E73E9685076315F60082803686C5B7EB
:1035E000A38F07FEC5BF0000480470004A047000A6
:1035F000960470004C0470004E047000500470007B
:103600005204700054047000560470005804700096
:103610005A0470005C0470009604700096047000F8
:1036200096047000960470005E04700060047000E0
:1036300062047000640470009604700096047000C8
:1036400096047000960470006604700066047000B2
:103650009604700096047000960470009604700042
:103660009604700096047000680470009604700060
:103670009604700096047000960470009604700022
:1036800096047000960470006A0470006C04700068
:103690009604700096047000960470009604700002
:1036A00096047000960470006E0470007004700040
:1036B0007204700074047000760470007804700066
:1036C00096047000960470007A04700096047000EE
:1036D00096047000960470009604700096047000C2
:1036E00096047000960470007C0470007E047000E4
:1036F00080047000820470008404700086047000EE
:103700009604700096047000960470009604700091
:10371000880470008A0470008C0470008E047000AD
:10372000900470009204700096047000960470007B
:103730009604700096047000960470009604700061
:103740009604700096047000940470009604700053
:103750009604700096047000960470009604700041
:10376000960470009604700098047000960470002F
:103770009604700096047000960470009604700021
:1037800096047000960470009A047000960470000D
:103790009604700096047000960470009604700001
:1037A00096047000960470006D61696E007469641F
:1037B00020213D2052545F4E554C4C0072745F6185
:1037C00070706C69636174696F6E5F696E697400B3
:1037D00064657620213D2052545F4E554C4C00725A
:1037E000745F6465766963655F756E72656769733A
:1037F0007465720072745F6F626A6563745F676597
:10380000745F7479706528266465762D3E706172E8
:10381000656E7429203D3D2052545F4F626A656396
:10382000745F436C6173735F4465766963650072AE
:10383000745F6F626A6563745F69735F73797374D1
:10384000656D6F626A65637428266465762D3E70C7
:103850006172656E74290072745F64657669636570
:103860005F64657374726F790072745F6F626A650A
:1038700063745F69735F73797374656D6F626A6592
:10388000637428266465762D3E706172656E7429B6
:10389000203D3D2052545F46414C53450072745FB9
:1038A0006465766963655F696E697400546F206949
:1038B0006E697469616C697A6520646576696365AF
:1038C0003A2573206661696C65642E205468652012
:1038D0006572726F7220636F64652069732025645E
:1038E0000A0072745F6465766963655F6F70656E08
:1038F000006465762D3E7265665F636F756E742039
:10390000213D20300072745F6465766963655F6392
:103910006C6F73650072745F6465766963655F726E
:103920006561640072745F6465766963655F777270
:103930006974650072745F6465766963655F636F5F
:103940006E74726F6C0072745F6465766963655F34
:103950007365745F72785F696E6469636174650032
:1039600072745F6465766963655F7365745F7478AC
:103970005F636F6D706C657465007469646C652558
:10398000640073656D20213D2052545F4E554C4CB0
:103990000072745F73656D5F696E69740076616C47
:1039A0007565203C20307831303030305500286645
:1039B0006C6167203D3D2052545F4950435F464C47
:1039C00041475F4649464F29207C7C2028666C6130
:1039D00067203D3D2052545F4950435F464C41476C
:1039E0005F5052494F290072745F73656D5F646563
:1039F000746163680072745F6F626A6563745F67A5
:103A000065745F74797065282673656D2D3E7061ED
:103A100072656E742E706172656E7429203D3D2052
:103A200052545F4F626A6563745F436C6173735F86
:103A300053656D6170686F72650072745F6F626A62
:103A40006563745F69735F73797374656D6F626AC0
:103A5000656374282673656D2D3E706172656E74A2
:103A60002E706172656E74290072745F73656D5F8C
:103A70006372656174650046756E6374696F6E5B31
:103A800025735D207368616C6C206E6F74206265B5
:103A9000207573656420696E204953520A00727460
:103AA0005F73656D5F64656C6574650072745F6FEC
:103AB000626A6563745F69735F73797374656D6F50
:103AC000626A656374282673656D2D3E7061726548
:103AD0006E742E706172656E7429203D3D205254C3
:103AE0005F46414C53450072745F73656D5F74614E
:103AF0006B650046756E6374696F6E5B25735D3A26
:103B0000207363686564756C6572206973206E6FDD
:103B10007420617661696C61626C650A0046756E3D
:103B20006374696F6E5B25735D207368616C6C20D4
:103B30006E6F742062652075736564206265666FC0
:103B40007265207363686564756C65722073746157
:103B500072740A0072745F73656D5F72656C656183
:103B600073650072745F73656D5F636F6E74726FFF
:103B70006C006D7574657820213D2052545F4E5560
:103B80004C4C0072745F6D757465785F696E697412
:103B90000072745F6D757465785F646574616368E5
:103BA0000072745F6F626A6563745F6765745F74E7
:103BB00079706528266D757465782D3E7061726523
:103BC0006E742E706172656E7429203D3D205254D2
:103BD0005F4F626A6563745F436C6173735F4D75B9
:103BE0007465780072745F6F626A6563745F69738D
:103BF0005F73797374656D6F626A65637428266D8F
:103C0000757465782D3E706172656E742E70617288
:103C1000656E74290072745F6D757465785F637288
:103C2000656174650072745F6D757465785F646555
:103C30006C6574650072745F6F626A6563745F6956
:103C4000735F73797374656D6F626A656374282638
:103C50006D757465782D3E706172656E742E70613D
:103C600072656E7429203D3D2052545F46414C538D
:103C7000450072745F6D757465785F74616B650083
:103C800072745F6D757465785F72656C656173657C
:103C90000072745F6D757465785F636F6E74726FB8
:103CA0006C006576656E7420213D2052545F4E5540
:103CB0004C4C0072745F6576656E745F696E6974F2
:103CC0000072745F6576656E745F646574616368C5
:103CD0000072745F6F626A6563745F6765745F74B6
:103CE00079706528266576656E742D3E7061726503
:103CF0006E742E706172656E7429203D3D205254A1
:103D00005F4F626A6563745F436C6173735F45768E
:103D1000656E740072745F6F626A6563745F697365
:103D20005F73797374656D6F626A65637428266565
:103D300076656E742D3E706172656E742E70617260
:103D4000656E74290072745F6576656E745F637268
:103D5000656174650072745F6576656E745F646535
:103D60006C6574650072745F6F626A6563745F6925
:103D7000735F73797374656D6F626A656374282607
:103D80006576656E742D3E706172656E742E70611D
:103D900072656E7429203D3D2052545F46414C535C
:103DA000450072745F6576656E745F73656E64005E
:103DB00072745F6576656E745F72656376007274A7
:103DC0005F6576656E745F636F6E74726F6C006DA5
:103DD0006220213D2052545F4E554C4C0072745F5E
:103DE0006D625F696E69740072745F6D625F6465B5
:103DF000746163680072745F6F626A6563745F67A1
:103E000065745F7479706528266D622D3E706172ED
:103E1000656E742E706172656E7429203D3D20526E
:103E2000545F4F626A6563745F436C6173735F4D87
:103E300061696C426F780072745F6F626A65637467
:103E40005F69735F73797374656D6F626A656374BC
:103E500028266D622D3E706172656E742E706172DF
:103E6000656E74290072745F6D625F637265617460
:103E7000650072745F6D625F64656C657465007285
:103E8000745F6F626A6563745F69735F737973747B
:103E9000656D6F626A65637428266D622D3E706180
:103EA00072656E742E706172656E7429203D3D20BE
:103EB00052545F46414C53450072745F6D625F73AC
:103EC000656E645F776169740072745F6D625F75BF
:103ED0007267656E740072745F6D625F726563769F
:103EE0000072745F6D625F636F6E74726F6C006DF1
:103EF0007120213D2052545F4E554C4C0072745F2E
:103F00006D715F696E69740072745F6D715F646575
:103F1000746163680072745F6F626A6563745F677F
:103F200065745F7479706528266D712D3E706172BD
:103F3000656E742E706172656E7429203D3D20524D
:103F4000545F4F626A6563745F436C6173735F4D66
:103F500065737361676551756575650072745F6F30
:103F6000626A6563745F69735F73797374656D6F9B
:103F7000626A65637428266D712D3E706172656E8C
:103F8000742E706172656E74290072745F6D715F5A
:103F90006372656174650072745F6D715F64656CF6
:103FA0006574650072745F6F626A6563745F6973DC
:103FB0005F73797374656D6F626A65637428266DCB
:103FC000712D3E706172656E742E706172656E74D3
:103FD00029203D3D2052545F46414C5345007274A8
:103FE0005F6D715F73656E645F77616974006275A0
:103FF0006666657220213D2052545F4E554C4C0040
:1040000073697A6520213D20300072745F6D715FA5
:10401000757267656E740072745F6D715F7265634F
:10402000760072745F6D715F636F6E74726F6C0097
:104030005F6970635F6C6973745F73757370656ECD
:10404000640072745F68775F75735F64656C617933
:10405000282920646F65736E277420737570706FE4
:10406000727420666F72207468697320626F617267
:10407000642E506C6561736520636F6E736964654F
:104080007220696D706C656D656E74696E67207203
:10409000745F68775F75735F64656C617928292048
:1040A000696E20616E6F746865722066696C652E3A
:1040B0000A000A205C207C202F0A002D2052542068
:1040C0002D2020202020546872656164204F706587
:1040D000726174696E672053797374656D0A00208C
:1040E0002F207C205C202020202025642E25642E7B
:1040F0002564206275696C642025732025730A008D
:104100004E6F7620203120323032320031353A3253
:10411000383A3134002032303036202D20323032DF
:104120003220436F70797269676874206279205217
:10413000542D546872656164207465616D0A0028AD
:104140004E554C4C2900656E645F616C69676E204A
:104150003E20626567696E5F616C69676E007274AC
:104160005F73797374656D5F686561705F696E69AF
:104170007400686561700028257329206173736578
:104180007274696F6E206661696C65642061742069
:1041900066756E6374696F6E3A25732C206C696E58
:1041A00065206E756D6265723A2564200A0045527D
:1041B000524F52004554494D4F55540045525346B5
:1041C000554C4C004552534550545900454E4F4DA7
:1041D000454D00454E4F53595300454255535900E4
:1041E00045494F0045494E545250540045494E569A
:1041F000414C0045554E4B4E4F5700303132333411
:104200003536373839616263646566003031323380
:10421000343536373839414243444546006C65767B
:10422000656C203D3D2052545F454F4B005F6865F3
:1042300061705F756E6C6F636B00000001000200BF
:10424000010003000100020001000400010002005F
:10425000010003000100020001000500010002004E
:10426000010003000100020001000400010002003F
:10427000010003000100020001000600010002002D
:10428000010003000100020001000400010002001F
:10429000010003000100020001000500010002000E
:1042A00001000300010002000100040001000200FF
:1042B00001000300010002000100070001000200EC
:1042C00001000300010002000100040001000200DF
:1042D00001000300010002000100050001000200CE
:1042E00001000300010002000100040001000200BF
:1042F00001000300010002000100060001000200AD
:10430000010003000100020001000400010002009E
:10431000010003000100020001000500010002008D
:10432000010003000100020001000400010002007E
:10433000010003000100020001006D656D20696E3F
:1043400069742C206572726F7220626567696E20D5
:104350006164647265737320307825782C20616EF7
:104360006420656E642061646472657373203078C4
:1043700025780A00736D616C6C0072745F736D65F3
:104380006D5F6465746163680072745F6F626A6513
:1043900063745F6765745F7479706528266D2D3E60
:1043A000706172656E7429203D3D2052545F4F62EA
:1043B0006A6563745F436C6173735F4D656D6F72A3
:1043C000790072745F6F626A6563745F69735F73AB
:1043D000797374656D6F626A65637428266D2D3E0E
:1043E000706172656E74290072745F736D656D5FC4
:1043F000616C6C6F63002872745F75626173655FD6
:1044000074296D656D202B2053495A454F465F53E3
:1044100054525543545F4D454D202B2073697A65A6
:10442000203C3D202872745F75626173655F74295A
:10443000736D616C6C5F6D656D2D3E686561705F5D
:10444000656E64002872745F75626173655F7429BC
:10445000282872745F75696E74385F74202A296D1C
:10446000656D202B2053495A454F465F5354525592
:1044700043545F4D454D2920252052545F414C49FE
:10448000474E5F53495A45203D3D2030002828289B
:1044900072745F75626173655F74296D656D292043
:1044A00026202852545F414C49474E5F53495A4594
:1044B000202D20312929203D3D20300072745F736A
:1044C0006D656D5F7265616C6C6F63002828287282
:1044D000745F75626173655F7429726D656D292003
:1044E00026202852545F414C49474E5F53495A4554
:1044F000202D20312929203D3D2030002872745F75
:1045000075696E74385F74202A29726D656D203E5E
:104510003D202872745F75696E74385F74202A2993
:10452000736D616C6C5F6D656D2D3E686561705F6C
:104530007074720072745F736D656D5F667265652D
:1045400000736D616C6C5F6D656D20213D20525470
:104550005F4E554C4C004D454D5F495355534544B6
:10456000286D656D290072745F6F626A6563745FA0
:104570006765745F747970652826736D616C6C5F14
:104580006D656D2D3E706172656E742E7061726521
:104590006E7429203D3D2052545F4F626A656374FA
:1045A0005F436C6173735F4D656D6F7279007274F8
:1045B0005F6F626A6563745F69735F737973746553
:1045C0006D6F626A6563742826736D616C6C5F6DD4
:1045D000656D2D3E706172656E742E706172656ED0
:1045E0007429002872745F75696E74385F74202AAC
:1045F00029726D656D203E3D202872745F75696E6D
:1046000074385F74202A29736D616C6C5F6D656D01
:104610002D3E686561705F707472202626202872B6
:10462000745F75696E74385F74202A29726D656DC8
:10463000203C202872745F75696E74385F74202A7C
:1046400029736D616C6C5F6D656D2D3E6865617081
:104650005F656E64004D454D5F504F4F4C2826738B
:104660006D616C6C5F6D656D2D3E686561705F702E
:1046700074725B6D656D2D3E6E6578745D29203DAD
:104680003D20736D616C6C5F6D656D002872745FA9
:1046900075696E74385F74202A296D656D203E3D02
:1046A000206D2D3E686561705F70747200706C756E
:1046B000675F686F6C6573002872745F75696E74EC
:1046C000385F74202A296D656D203C202872745F44
:1046D00075696E74385F74202A296D2D3E68656196
:1046E000705F656E6400696E666F726D6174696F8C
:1046F0006E20213D2052545F4E554C4C0072745F29
:104700006F626A6563745F696E6974006F626A20C4
:10471000213D206F626A656374006F626A6563742D
:1047200020213D2052545F4E554C4C0072745F6FF7
:10473000626A6563745F6465746163680072745F64
:104740006F626A6563745F616C6C6F63617465004E
:1047500072745F6F626A6563745F64656C657465CB
:104760000021286F626A6563742D3E74797065203C
:10477000262052545F4F626A6563745F436C6173B5
:10478000735F537461746963290072745F6F626A46
:104790006563745F69735F73797374656D6F626A63
:1047A0006563740072745F6F626A6563745F6765E6
:1047B000745F747970650072745F6F626A656374A8
:1047C0005F66696E640074687265616420213D20D3
:1047D00052545F4E554C4C0072745F73636865644D
:1047E000756C655F696E736572745F74687265611C
:1047F000640072745F7363686564756C655F72658D
:104800006D6F76655F746872656164007468726567
:1048100061643A257320737461636B206F766572EF
:10482000666C6F770A0072745F7468726561645FAA
:10483000696E697400737461636B5F737461727421
:1048400020213D2052545F4E554C4C0072745F74D1
:1048500068726561645F7374617274757000287446
:1048600068726561642D3E73746174202620525411
:104870005F5448524541445F535441545F4D415346
:104880004B29203D3D2052545F5448524541445FDE
:10489000494E49540072745F6F626A6563745F6762
:1048A00065745F74797065282872745F6F626A65D9
:1048B00063745F742974687265616429203D3D20CA
:1048C00052545F4F626A6563745F436C6173735FD8
:1048D0005468726561640072745F746872656164C3
:1048E0005F6465746163680072745F6F626A6563B8
:1048F000745F69735F73797374656D6F626A656302
:1049000074282872745F6F626A6563745F742974B7
:104910006872656164290072745F746872656164AD
:104920005F64656C6574650072745F6F626A65636D
:10493000745F69735F73797374656D6F626A6563C1
:1049400074282872745F6F626A6563745F74297477
:10495000687265616429203D3D2052545F46414C98
:1049600053450072745F7468726561645F736C654F
:104970006570007469636B20213D2052545F4E5571
:104980004C4C0072745F7468726561645F64656C3E
:1049900061795F756E74696C0072745F74687265BA
:1049A00061645F636F6E74726F6C0072745F7468C1
:1049B000726561645F73757370656E6400746872AC
:1049C000656164203D3D2072745F74687265616446
:1049D0005F73656C6628290072745F746872656124
:1049E000645F726573756D65007072696F7269746A
:1049F00079203C2052545F5448524541445F505204
:104A0000494F524954595F4D4158005F746872656F
:104A100061645F74696D656F757400287468726590
:104A200061642D3E7374617420262052545F544893
:104A3000524541445F535441545F4D41534B2920EB
:104A40003D3D2052545F5448524541445F535553B5
:104A500050454E440074696D657220213D205254CA
:104A60005F4E554C4C0072745F74696D65725F697E
:104A70006E69740074696D656F757420213D2052F4
:104A8000545F4E554C4C0074696D65203C20525467
:104A90005F5449434B5F4D4158202F2032007274C0
:104AA0005F74696D65725F646574616368007274D8
:104AB0005F6F626A6563745F6765745F7479706560
:104AC000282674696D65722D3E706172656E742959
:104AD000203D3D2052545F4F626A6563745F436CB2
:104AE0006173735F54696D65720072745F6F626A9F
:104AF0006563745F69735F73797374656D6F626A00
:104B0000656374282674696D65722D3E70617265E7
:104B10006E74290072745F74696D65725F6372658B
:104B20006174650072745F74696D65725F64656C51
:104B30006574650072745F6F626A6563745F697340
:104B40005F73797374656D6F626A65637428267428
:104B5000696D65722D3E706172656E7429203D3DF0
:104B60002052545F46414C53450072745F74696D26
:104B700065725F73746172740072745F74696D65DD
:104B8000725F73746F700072745F74696D65725FC9
:104B9000636F6E74726F6C00282A2872745F746978
:104BA000636B5F74202A2961726729203C2052546C
:104BB0005F5449434B5F4D4158202F2032007469A8
:104BC0006D6572005F68775F70696E2E6F7073201D
:104BD000213D2052545F4E554C4C0072745F7069F9
:104BE0006E5F6174746163685F6972710072745F93
:104BF00070696E5F6465746163685F697271007289
:104C0000745F70696E5F6972715F656E61626C6519
:104C10000072745F70696E5F6D6F64650072745FBF
:104C200070696E5F77726974650072745F70696E27
:104C30005F726561640072745F70696E5F6765744E
:104C40000070696E20213D2052545F4E554C4C003F
:104C50005F70696E5F636F6E74726F6C0070696E07
:104C6000000000000032700082327000A23270003A
:104C7000000000000000000000000000BA327000D8
:054C8000756172740073
:044C8800BA077000F7
:044C8C00BE077000EF
:044C9000C2077000E7
:104CA0000100000004000100040001008000000079
:104CB00002000000140001001400010020000000A8
:104CC0000300000024000100240001002400000073
:104CD0000400000034000100340001002000000046
:104CE0000500000044000100440001003000000005
:104CF0000600000054000100540001003C000000C8
:104D0000080000006400010064000100340000009D
:104D1000090000007400010074000100440000005C
:104D20000A00000084000100840001002C00000043
:104D30000C00000094000100940001002800000015
:104D4000A0000100A000010031112EC8F325007C55
:104D50002EC6F325003001000B002566010073907C
:0E4D60000530B2457390057CC245510182803A
:02000004007387
:08FFE800B700700082800000E8
:10FFF000FFFFFFFFFFFFFFFFFFFFFFFFFFFFFFFF11
:040000050070000087
:00000001FF
